{
  "contractName": "ParkingSpot",
  "abi": [
    {
      "inputs": [
        {
          "name": "_id",
          "type": "uint256"
        }
      ],
      "payable": false,
      "stateMutability": "nonpayable",
      "type": "constructor"
    },
    {
      "constant": false,
      "inputs": [
        {
          "name": "start",
          "type": "uint256"
        },
        {
          "name": "finish",
          "type": "uint256"
        },
        {
          "name": "_plate",
          "type": "string"
        }
      ],
      "name": "setParkingSpot",
      "outputs": [],
      "payable": false,
      "stateMutability": "nonpayable",
      "type": "function"
    },
    {
      "constant": true,
      "inputs": [],
      "name": "isAvitable",
      "outputs": [
        {
          "name": "",
          "type": "bool"
        }
      ],
      "payable": false,
      "stateMutability": "view",
      "type": "function"
    },
    {
      "constant": true,
      "inputs": [],
      "name": "getStartTime",
      "outputs": [
        {
          "name": "",
          "type": "uint256"
        }
      ],
      "payable": false,
      "stateMutability": "view",
      "type": "function"
    },
    {
      "constant": true,
      "inputs": [],
      "name": "getFinishTime",
      "outputs": [
        {
          "name": "",
          "type": "uint256"
        }
      ],
      "payable": false,
      "stateMutability": "view",
      "type": "function"
    },
    {
      "constant": true,
      "inputs": [],
      "name": "getPlate",
      "outputs": [
        {
          "name": "",
          "type": "string"
        }
      ],
      "payable": false,
      "stateMutability": "view",
      "type": "function"
    }
  ],
  "bytecode": "0x608060405234801561001057600080fd5b5060405160208061043c8339810180604052810190808051906020019092919050505080600081905550506103f28061004a6000396000f30060806040526004361061006d576000357c0100000000000000000000000000000000000000000000000000000000900463ffffffff16806304068506146100725780632926646514610102578063afc01cb91461017f578063c2f69dec146101aa578063c828371e146101d9575b600080fd5b34801561007e57600080fd5b50610087610204565b6040518080602001828103825283818151815260200191508051906020019080838360005b838110156100c75780820151818401526020810190506100ac565b50505050905090810190601f1680156100f45780820380516001836020036101000a031916815260200191505b509250505060405180910390f35b34801561010e57600080fd5b5061017d6004803603810190808035906020019092919080359060200190929190803590602001908201803590602001908080601f01602080910402602001604051908101604052809392919081815260200183838082843782019150505050505091929192905050506102a6565b005b34801561018b57600080fd5b506101946102df565b6040518082815260200191505060405180910390f35b3480156101b657600080fd5b506101bf6102e9565b604051808215151515815260200191505060405180910390f35b3480156101e557600080fd5b506101ee610317565b6040518082815260200191505060405180910390f35b606060038054600181600116156101000203166002900480601f01602080910402602001604051908101604052809291908181526020018280546001816001161561010002031660029004801561029c5780601f106102715761010080835404028352916020019161029c565b820191906000526020600020905b81548152906001019060200180831161027f57829003601f168201915b5050505050905090565b8183111515156102b557600080fd5b826001819055508160028190555080600390805190602001906102d9929190610321565b50505050565b6000600254905090565b6000600254421015156102ff5760019050610314565b600254421115156103135760009050610314565b5b90565b6000600154905090565b828054600181600116156101000203166002900490600052602060002090601f016020900481019282601f1061036257805160ff1916838001178555610390565b82800160010185558215610390579182015b8281111561038f578251825591602001919060010190610374565b5b50905061039d91906103a1565b5090565b6103c391905b808211156103bf5760008160009055506001016103a7565b5090565b905600a165627a7a72305820509d00ac71d87386762bdf7dddce28bd89d795237cc8fc1dd04fe3c05c89f1ac0029",
  "source": "pragma solidity ^0.4.24;\n\n\ncontract ParkingSpot{\n\n    constructor(uint _id) public {\n        id = _id;\n    }\n\n    function setParkingSpot(uint start, uint finish, string _plate) public {\n        require(start<=finish);\n        startDate = start;\n        finishDate = finish;\n        plate = _plate;\n    }\n\n    function isAvitable() public view returns (bool){\n        if(now >= finishDate)\n            return true;\n        if(now <= finishDate)\n            return false;\n    }\n\n    function getStartTime() public view returns (uint){\n        return startDate;\n        //aggiungi libreria\n    }\n\n    function getFinishTime() public view returns (uint){\n        return finishDate;\n        //aggiungi libreria\n    }\n\n    function getPlate() public view returns (string){\n        return plate;\n    } \n\n    uint private id;\n    uint private startDate;\n    uint private finishDate;\n    string private plate;\n}\n\n",
  "sourcePath": "/home/desi/gitRepo/smartParkingBlockchain/contracts/ParkingSpot.sol",
  "compiler": {
    "name": "solc",
    "version": "0.4.24+commit.e67f0147.Emscripten.clang"
  },
  "schemaVersion": "2.0.0",
  "updatedAt": "2018-08-02T10:34:02.857Z"
}