{
  "contractName": "ParkingArea",
  "abi": [
    {
      "constant": true,
      "inputs": [],
      "name": "price",
      "outputs": [
        {
          "name": "",
          "type": "uint8"
        }
      ],
      "payable": false,
      "stateMutability": "view",
      "type": "function"
    },
    {
      "constant": true,
      "inputs": [],
      "name": "addrs",
      "outputs": [
        {
          "name": "",
          "type": "string"
        }
      ],
      "payable": false,
      "stateMutability": "view",
      "type": "function"
    },
    {
      "inputs": [
        {
          "name": "_id",
          "type": "uint256"
        },
        {
          "name": "_price",
          "type": "uint8"
        },
        {
          "name": "_address",
          "type": "string"
        }
      ],
      "payable": false,
      "stateMutability": "nonpayable",
      "type": "constructor"
    },
    {
      "constant": true,
      "inputs": [],
      "name": "getSpotCount",
      "outputs": [
        {
          "name": "",
          "type": "uint256"
        }
      ],
      "payable": false,
      "stateMutability": "view",
      "type": "function"
    },
    {
      "constant": true,
      "inputs": [],
      "name": "getLastSpot",
      "outputs": [
        {
          "name": "",
          "type": "address"
        }
      ],
      "payable": false,
      "stateMutability": "view",
      "type": "function"
    },
    {
      "constant": true,
      "inputs": [],
      "name": "getFreeSpot",
      "outputs": [
        {
          "name": "",
          "type": "address[10]"
        }
      ],
      "payable": false,
      "stateMutability": "view",
      "type": "function"
    }
  ],
  "bytecode": "0x608060405234801561001057600080fd5b506040516108213803806108218339810180604052810190808051906020019092919080519060200190929190805182019291905050508260008190555081600160006101000a81548160ff021916908360ff160217905550806003908051906020019061007f929190610088565b5050505061012d565b828054600181600116156101000203166002900490600052602060002090601f016020900481019282601f106100c957805160ff19168380011785556100f7565b828001600101855582156100f7579182015b828111156100f65782518255916020019190600101906100db565b5b5090506101049190610108565b5090565b61012a91905b8082111561012657600081600090555060010161010e565b5090565b90565b6106e58061013c6000396000f30060806040526004361061006d576000357c0100000000000000000000000000000000000000000000000000000000900463ffffffff1680630f1cd59514610072578063803df4701461009d5780639086c894146100f4578063a035b1fe14610147578063cec85cea14610178575b600080fd5b34801561007e57600080fd5b50610087610208565b6040518082815260200191505060405180910390f35b3480156100a957600080fd5b506100b2610215565b604051808273ffffffffffffffffffffffffffffffffffffffff1673ffffffffffffffffffffffffffffffffffffffff16815260200191505060405180910390f35b34801561010057600080fd5b50610109610440565b6040518082600a60200280838360005b83811015610134578082015181840152602081019050610119565b5050505090500191505060405180910390f35b34801561015357600080fd5b5061015c6105e4565b604051808260ff1660ff16815260200191505060405180910390f35b34801561018457600080fd5b5061018d6105f7565b6040518080602001828103825283818151815260200191508051906020019080838360005b838110156101cd5780820151818401526020810190506101b2565b50505050905090810190601f1680156101fa5780820380516001836020036101000a031916815260200191505b509250505060405180910390f35b6000600280549050905090565b60008060008060009150600090505b61022c610208565b811015610437578160028281548110151561024357fe5b9060005260206000200160009054906101000a900473ffffffffffffffffffffffffffffffffffffffff1673ffffffffffffffffffffffffffffffffffffffff1663c828371e6040518163ffffffff167c0100000000000000000000000000000000000000000000000000000000028152600401602060405180830381600087803b1580156102d157600080fd5b505af11580156102e5573d6000803e3d6000fd5b505050506040513d60208110156102fb57600080fd5b810190808051906020019092919050505010151561042a5760028181548110151561032257fe5b9060005260206000200160009054906101000a900473ffffffffffffffffffffffffffffffffffffffff16925060028181548110151561035e57fe5b9060005260206000200160009054906101000a900473ffffffffffffffffffffffffffffffffffffffff1673ffffffffffffffffffffffffffffffffffffffff1663c828371e6040518163ffffffff167c0100000000000000000000000000000000000000000000000000000000028152600401602060405180830381600087803b1580156103ec57600080fd5b505af1158015610400573d6000803e3d6000fd5b505050506040513d602081101561041657600080fd5b810190808051906020019092919050505091505b8080600101915050610224565b82935050505090565b610448610695565b610450610695565b60008060009150600090505b6002805490508110156105db5760028181548110151561047857fe5b9060005260206000200160009054906101000a900473ffffffffffffffffffffffffffffffffffffffff1673ffffffffffffffffffffffffffffffffffffffff1663c2f69dec6040518163ffffffff167c0100000000000000000000000000000000000000000000000000000000028152600401602060405180830381600087803b15801561050657600080fd5b505af115801561051a573d6000803e3d6000fd5b505050506040513d602081101561053057600080fd5b8101908080519060200190929190505050156105ce5760028181548110151561055557fe5b9060005260206000200160009054906101000a900473ffffffffffffffffffffffffffffffffffffffff168383600a8110151561058e57fe5b602002019073ffffffffffffffffffffffffffffffffffffffff16908173ffffffffffffffffffffffffffffffffffffffff168152505081806001019250505b808060010191505061045c565b82935050505090565b600160009054906101000a900460ff1681565b60038054600181600116156101000203166002900480601f01602080910402602001604051908101604052809291908181526020018280546001816001161561010002031660029004801561068d5780601f106106625761010080835404028352916020019161068d565b820191906000526020600020905b81548152906001019060200180831161067057829003601f168201915b505050505081565b61014060405190810160405280600a906020820280388339808201915050905050905600a165627a7a72305820e34a51b3e480d4dac9f4e795e7f3f49bcd0da766dacbc8ec6293d7a776a658000029",
  "source": "pragma solidity ^0.4.24;\n\nimport \"./ParkingSpot.sol\";\n\ncontract ParkingArea{\n\n    constructor(uint _id,uint8 _price, string _address) public {\n        id = _id;\n        price = _price;\n        addrs = _address;\n    }\n\n    function getSpotCount() public view returns (uint){\n        return spot.length;\n    }\n\n    function getLastSpot() public view returns (ParkingSpot){\n        ParkingSpot lastSpot;\n        uint startTmp = 0;\n        for(uint i=0;i<getSpotCount();i++)\n            if((spot[i].getStartTime())>= startTmp){\n                lastSpot = spot[i];\n                startTmp = spot[i].getStartTime();\n            }\n        return lastSpot;\n    }\n\n    function getFreeSpot() public view returns (ParkingSpot[10]){\n        ParkingSpot[10] memory spotFreeTmp;\n        uint j = 0;\n        for(uint i=0; i< spot.length;i++)\n            if(spot[i].isAvitable()){\n                spotFreeTmp[j] = spot[i];\n                j++;\n            }\n\n        return spotFreeTmp;\n    }\n\n    uint private id;\n    uint8 public price;\n    ParkingSpot[] private spot;\n    string public addrs;\n}\n\n",
  "sourcePath": "/home/desi/gitRepo/smartParkingBlockchain/contracts/ParkingArea.sol",
  "compiler": {
    "name": "solc",
    "version": "0.4.24+commit.e67f0147.Emscripten.clang"
  },
  "schemaVersion": "2.0.0",
  "updatedAt": "2018-08-02T10:34:02.855Z"
}