{
  "contractName": "SmartParking",
  "abi": [
    {
      "inputs": [],
      "payable": false,
      "stateMutability": "nonpayable",
      "type": "constructor"
    },
    {
      "constant": true,
      "inputs": [],
      "name": "isOwner",
      "outputs": [
        {
          "name": "",
          "type": "bool"
        }
      ],
      "payable": false,
      "stateMutability": "view",
      "type": "function"
    }
  ],
  "bytecode": "0x608060405234801561001057600080fd5b50336000806101000a81548173ffffffffffffffffffffffffffffffffffffffff021916908373ffffffffffffffffffffffffffffffffffffffff16021790555060f38061005f6000396000f300608060405260043610603f576000357c0100000000000000000000000000000000000000000000000000000000900463ffffffff1680638f32d59b146044575b600080fd5b348015604f57600080fd5b5060566070565b604051808215151515815260200191505060405180910390f35b60003373ffffffffffffffffffffffffffffffffffffffff166000809054906101000a900473ffffffffffffffffffffffffffffffffffffffff1673ffffffffffffffffffffffffffffffffffffffff16149050905600a165627a7a7230582056b331ed5b6b2ab334f94d80b64229d6632c255cc5cfa0cb235cea97838a81210029",
  "source": "pragma solidity ^0.4.24;\n\n\ncontract SmartParking{\n    address private owner;\n\n    constructor() public {\n        owner = msg.sender;\n    }\n\n    function isOwner() public view returns (bool){\n        return owner == msg.sender;\n    }\n\n}\n\n",
  "sourcePath": "/home/desi/gitRepo/smartParkingBlockchain/contracts/SmartParking.sol",
  "compiler": {
    "name": "solc",
    "version": "0.4.24+commit.e67f0147.Emscripten.clang"
  },
  "schemaVersion": "2.0.0",
  "updatedAt": "2018-08-02T10:34:03.328Z"
}